:020000040000FA
:0300000002007388
:100013000202B600000080FB1200D4B90003020004
:100023005DE4900F00780479018002F0A3D8FCD935
:10003300FA900F03AA82AB839000D77815790180D9
:1000430015E493A3AC82AD838A828B83F0A3AA8247
:10005300AB838C828D83D8E9D9E775822C75830AAB
:100063007400120085758216758300740012008572
:1000730075D0007581BF75100075110F75C700022B
:10008300001BC4C0F0F5F0E5C75430C4C0E0E5C7B9
:1000930054CF45F0F5C7D0F0E47385C7F053F0CFE4
:1000A300D0E0C445F0F5C722D083D082E5C7C4545D
:1000B30003C0E0E493C0E0740193C0E0740293C40E
:1000C3005430C0F0F5F0E5C754CF45F0D0F0F5C794
:1000D30022790122303132333435363738394142CF
:1000E30043444546303030011200ABCF02001200CA
:1000F300ABFE02001200AB4C03001200AB990300ED
:100103001200ABB903001200ABDB03001200ABFD1E
:1001130003001200AB2004001200AB3E04001200E7
:10012300ABA704001200ABFA04001200ABEA06000E
:100133001200AB8C07001200AB620B001200AB7F06
:100143000B001200AB8508001200ABD008001200B0
:10015300ABDA08001200ABB90B00CAC0E0E6F0A3AB
:1001630008DAFAD0E0FA22CAC0E0E0A3C582CCC51F
:1001730082C583CDC583F0A3C582CCC582C583CD9B
:10018300C583DAE6D0E0CA22251010AF08F5104087
:100193000215118008F51040021511D2AF22C0D00C
:1001A300251010AF08F510500205118008F5105006
:1001B300020511D2AFD0D0222510F58210AF08F579
:1001C30010400215118008F51040021511D2AF85B9
:1001D3001183222510F582E43511F58322C0E0E86E
:1001E300C0E0E58124FCF8E6A2E7D0E0F8D0E02205
:1001F3002510C582C0E0E51134FFC583C0E0E510DA
:10020300C3958224F810AF08858311858210800876
:10021300858311858210D2AFCEF0A3E520F0A378B9
:1002230008E608F0A3DEFAEFF0A3E58124FAF8E686
:1002330008F0A3E608F0A3E608F0A30808E608F030
:10024300A3E608F0A315811581D0E0FED0E0F815F0
:100253008115811581E8C0E0EEC0E0228511838518
:100263001082E0A3FEE0A3F5207808E0A3F608DF00
:10027300FAE0A3FFE0A3C0E0E0A3C0E0E0A3C0E096
:10028300E0A3C0E0E0A3C0E010AF0885821085833F
:10029300118008858210858311D2AFD083D082026A
:1002A300009D74028000C0E0F4041201BBD0E01290
:1002B300015D22C0E0C0D0C082C083C28BE5C19083
:1002C3000F00F0D083D082D0D0D0E0327C007D000C
:1002D3008019E82401F8E93400F9C3E89420E9948B
:1002E3000040EFEC2401FCED3400FDC3EC9AED9BE0
:1002F30050067800790080E202009D74F71201F342
:1003030089087E007F008029C2867A037B00120061
:10031300EBC2877A017B001200EBD2877A037B0062
:100323001200EBE508C333F508EE2401FEEF3400B9
:10033300FFC3EE9408EF9400500AE508A2E750C803
:10034300D28680C67F0102025F74F71201F37E003A
:100353007F008032E508C333F508C2877A037B0048
:100363001200EBA2855007D3E50892E0F5087A0264
:100373007B001200EBD2877A037B001200EBEE24A2
:1003830001FEEF3400FFC3EE9408EF940040C5A9CB
:10039300087F0102025F74F71201F3E9FF7E00C2D6
:1003A300A0C3334480F91200F11200F7E9FED2A092
:1003B300F97F0102025F74F71201F3E9FFEAFEEF2E
:1003C300C333FF747E5FF9C2A01200F1EEF912008D
:1003D300F1D2A07F0102025F74F71201F3E9FEEA92
:1003E300FF750800EEF91200FDE9F508E5084FFA7C
:1003F300EEF91201037F0102025F74F71201F3E9C0
:10040300FEEAFF750800EEF91200FDE9F508EFF4C6
:100413005508FAEEF91201037F0102025FC082C0A0
:100423008379141200FDE9F874035870077A03798D
:1004330014120109D083D08202009DC082C083D2EE
:10044300847A017B001200EBC2847A017B001200E4
:10045300EBD2847A017B001200EB7A0F790112014F
:100463000379011200FDE9F8A2E440F57A0A7B0062
:100473001200EB7A3D79111201037A1E792D1201D4
:10048300037A00792C1201037A8D792A1201037AF7
:100493003E792B1201037A407915120103D083D0E0
:1004A3008202009D74F71201F3E9FE74416E7042FB
:1004B3007A08790812010F7A3D79111201037A86BD
:1004C30079171201037A7F79261201037A1E792D97
:1004D3001201037A00792C1201037A8D792A120111
:1004E300037A3E792B1201037A027B001200EB128E
:1004F30001157F0102025F74F01201F374FE120111
:100503008B851082851183EAF0A3EBF089088C0FA9
:100513007509BB750C00750E00E50824F4600C2406
:10052300FE700E750C12750E108006750C77750E25
:10053300307480450CFA79021201037A807904122F
:10054300010F7A0079011201037A80790A120109F5
:100553007E007F00801F851082851183E02EF8A323
:10056300E03F8882F583E0FA7909120103EE240162
:10057300FEEF3400FF850F0A750B00C3EE950AEFFB
:10058300950B40D2AA087901120103740C65087017
:10059300077A80790D1201097EE87F03790412003E
:1005A300FDE9F50DEE24FFFEEF34FFFFEE4F600C87
:1005B300E50DA2E04006E50D550E60E07A80790D69
:1005C30012010FEE4F70030206D079061200FDE907
:1005D300541B60030206CD750926E50CA2E0C0D0CA
:1005E300E50DA2E092F01201E0158182F05003754F
:1005F30009CC740C650860030206D0790A1200FD69
:10060300E9F50D790C1200FDE95407FAEA60468515
:100613000D0A750B00E50A24FFF8E50B34FFF9E832
:1006230075F008A4C8ABF075F000A42BFB75F008B7
:10063300E9A42BF98A0A750B00E8250AF8E9350BBA
:10064300F974141201D6E0FAA3E0F5838A82E8F084
:10065300A3E9F0802DE50DA80D7900E875F008A455
:10066300C8AAF075F000A42AFA75F008E9A42AF9DB
:1006730074141201D6E0FAA3E0F5838A82E8F0A3AA
:10068300E9F0E50D7003750D01E50DC39413400307
:10069300750D127E007F00850D0A750B00C3EE9564
:1006A3000AEF950B502779091200FDE9C0E0741297
:1006B3001201D6E02EF8A3E03F8882F583D0E0F064
:1006C300EE2401FEEF3400FF80CD7509BB7A8079FB
:1006D3000C1201097A007901120103A909740212AB
:1006E30001A17F0802025F74F51201F374EC120199
:1006F3008B890AEAFEEBFF7A08790812010F7A0761
:10070300790D1201037A037914120109E50A7402BF
:100713001201D6E50AF0851082851183858208854A
:10072300830978081202A574041201D6858208850C
:10073300830978081202A57C0174061201D6AA82E5
:10074300AB83790C12012774041201A1E9F9742611
:1007530069702A851082851183E064107004A3E018
:100763006400701974021201D6E08E828F83F074D4
:10077300031201D6E08E828F83A3F0800279BB74CB
:10078300141201A17F0302025F74F21201F374ECED
:1007930012018BEAFEEBFF750A007A087908120151
:1007A3000F7A00790D1201037A80790E12010F740A
:1007B300021201D67493F074031201D67420F085EB
:1007C300108285118385820885830978081202A522
:1007D30074041201D685820885830978081202A55C
:1007E3007C0274061201D6AA82AB83790C1201270C
:1007F30074041201A1E9F50B7426650B7071750C75
:10080300008049850C0875090074021201D6E5823F
:100813002508F582E5833509F583E0C0E0850C08FA
:10082300750900EE2508F582EF3509F583D0E0F070
:10083300850C0875090074021201D6E5822508F5B6
:1008430082E5833509F583E0620A050CE50CC39460
:100853000440B0750D0074021201D6E582250CF533
:1008630082E583350DF583E0650A6003750BBB7A7A
:1008730080790E120109A90B74141201A17F0602DB
:10088300025FC082C08353C6BFE59EA2E640FA530F
:10089300C6B812013943FF0143F70153F5FE43FD87
:1008A30080438F8053F37F43FD40438F4053F3BF17
:1008B30043FD20438F2053F3DF53FDEF538FEF535B
:1008C300F3EFD287D2A0D083D08202009D75FE03BE
:1008D300D290D29102009D74F61201F374E41201D6
:1008E3008B7EAA900F03C082C083740C1201D6AC16
:1008F30082AD83D083D082741012016A8510828501
:100903001183AA82AB83795212012DE9F874266808
:100913006011851082851183AA82AB8379521201FB
:100923002DE9F874266860027EAA74266870B47490
:10093300AA6E70AF851082851183AA82AB831201E0
:1009430033E97B00020A0775F0108B0875090085EF
:100953001082851183E5822508F582E5833509F543
:1009630083E084F87900740C1201D6E58228F582BD
:10097300E58339F583E0C0E0EBF87900E875F00230
:10098300A4C8AAF075F000A42AFA75F002E9A42A13
:10099300F974041201D6E58228F582E58339F583DB
:1009A300D0E0F08B08750900851082851183E582FC
:1009B3002508F582E5833509F583E075F01084E5B4
:1009C300F0A8F07900740C1201D6E58228F582E5CF
:1009D3008339F583E0C0E0EBF87900E875F002A411
:1009E300C8AAF075F000A42AFA75F002E9A42AF95E
:1009F30074041201D6E58228F582E58339F583A3D1
:100A0300D0E0F00BEBC39404500302094A7C087D49
:100A13000074041201D6AA82AB8312013F7E0074D4
:100A23001C1201A17F0202025F12014512014B1247
:100A3300011B7941120121803E900F13E06449703C
:100A43000B900F14E064437003120151900F16745E
:100A530001F075080375090078081202A57C007D72
:100A6300007A137B0F12015774021201A1900F0138
:100A73007400F0A37400F0900F16E06401706290AC
:100A83000F00E0605C900F00E064236034900F017E
:100A9300C3E0941EA3E094005027900F00E0C0E051
:100AA300900F01E02413F8A3E0340FF988828983BF
:100AB300D0E0F0900F01E02401F0A3E03400F080D7
:100AC30006900F167403F0900F01E064037004A303
:100AD300E064007006900F167403F0900F0074002A
:100AE300F0900F16E06403708E900F13E064527061
:100AF3001D900F14E064307005D290020A4F900FDE
:100B030014E064316003020A4FC290020A4F900F4F
:100B130013E06447701D900F14E064307005D291A8
:100B2300020A4F900F14E064316003020A4FC2912E
:100B3300020A4F900F13E064416003020A3C900FD6
:100B430014E064307007D290D291020A4F900F14D0
:100B5300E064316003020A4FC290C291020A4F75EA
:100B6300F10075F30C53FF3F43868043C50843C22E
:100B73003BD2E943864043A88402009D74F71201E7
:100B8300F378007900801E8A828B83E0F5C18A8224
:100B93008B83A3AA82AB83A2E950FCC2E9E82401B8
:100BA300F8E93400F9C3E89CE99DA2D265D033404B
:100BB300D67F0102025F74F71201F374091201D6A2
:100BC300E0F8A3E0F98A828B838003ECF0A3E8FECC
:100BD300E9FFEE24FF18EF34FFF9EE4F70ED7F01CC
:030BE30002025FAC
:040000050000007384
:00000001FF
